:020000040000FA
:070000000207603B109600AF
:10000B00020C0CEF90001793900100730A1B2C3D10
:04001B004E5F708143
:10002300020C07900066EEF0A3EFF0A37400F0A3B8
:1000330074D8F0900068E0FEA3E0F5828E83E0FEC2
:10004300A3E0FF4E7003FEFF228F828E83A3A3E003
:10005300FCA3E0FD900066E0FAA3E0FBC3ED9BEC9C
:100063009A500A900068EEF0A3EFF080C68F828E5C
:1000730083A3A3E0FCA3E0C39BFDEC9AFC90006A7E
:10008300F0A3EDF0C39410EC940050178F828E838D
:10009300E0FCA3E0FD900068E0FAA3E0F5828A8328
:1000A300EC804590006BE024FCF090006AE034FFA4
:1000B300F0E0FDA3E08F828E83A3A3CDF0A3EDF048
:1000C300EF2404FFE43EFE90006BE02FFF90006AF4
:1000D300E03EFE900068F0A3EFF0900066E0FDA321
:1000E300E08F828E83A3A3CDF0A3EDF0EF2404FF72
:0A00F300E43EFE22758701AF99225A
:10010000C0087401C0E0C082C08375080A75B600DB
:1001100022C0087401C0E0C082C08375081B75B698
:100120000122C0087401C0E0C082C08375082C752C
:10013000B60222C0087401C0E0C082C08375083DC9
:1001400075B60322C0087401C0E0C082C083750880
:100150004E75B60422C0087401C0E0C082C0837529
:10016000085F75B60522C0087401C0E0C082C08374
:1001700075087075B60622C0087401C0E0C082C060
:100180008375088175B60722908000211190800048
:100190002122908000213390800021449080002112
:1001A000550089828A838BB715B753B77FBB800010
:1001B0005005E075B70022E49375B7002289828A62
:1001C000838BB715B753B77FBB80005001F075B76D
:1001D000002289828A838BB715B753B77FBB800013
:1001E0005009E0F5F0A3E075B70022E493F5F07450
:1001F000019375B7002289828A838BB715B753B7ED
:100200007FBB80005005F0A3E5F0F075B7002289B0
:10021000828A838BB715B753B77FBB8000500CE041
:10022000FBA3E0FAA3E0F975B70022E493FB7401A5
:1002300093FA740293F975B7002289828A838BB787
:1002400015B753B77FBB8000500AC5F0F0A3C5F0C7
:10025000F0A3E8F075B7002289828A838BB715B7BF
:1002600053B77FBB8000500FE0FCA3E0FDA3E0FE8E
:10027000A3E0FF75B70022E493FC740193FD7402C0
:1002800093FE740393FF75B7002289828A838BB72C
:1002900015B753B77FBB8000500BECF0A3EDF0A374
:1002A000EEF0A3EFF075B70022E709F608DFFA8059
:1002B00046E709F208DFFA803E88828C83E709F07E
:1002C000A3DFFA8032E309F608DFFA8078E309F267
:1002D00008DFFA807088828C83E309F0A3DFFA805C
:1002E0006489828A83E0A3F608DFFA805889828ACB
:1002F00083E0A3F208DFFA804C80D280FA80C680C7
:10030000D4806980F28033801080A680EA809A8051
:10031000A880DA80E280CA803389828A83ECFAE49A
:1003200093A3C8C582C8CCC583CCF0A3C8C582C876
:10033000CCC583CCDFE9DEE7800D89828A83E49334
:10034000A3F608DFF9ECFAA9F0EDFB2289828A8393
:10035000ECFAE0A3C8C582C8CCC583CCF0A3C8C55D
:1003600082C8CCC583CCDFEADEE880DB89828A8361
:10037000E493A3F208DFF980CC88F0EF60010E4E21
:1003800060C388F0ED2402B404005013F582EB241E
:1003900002B40400500923234582239002F973EC30
:1003A000C0E01203CBC90470010AC8C9CACCCACBC9
:1003B000CDCB12041EC90470010AC8C9CACCCACB6D
:1003C000CDCBDFDEDEDCD0E0020346BB0106898256
:1003D0008A83E0225002E722BBFE02E32240078923
:1003E000828A83E493220201A2BB010989828A8363
:1003F000F8E028F022500327F722BBFE05F8E32897
:10040000F32240098A838982F8E4932822C0E0120B
:1004100001A2D0822582C0E01201BDD0E022BB0142
:100420000689828A83F0225002F722BBFE02F32261
:1004300050FD0201BDE3F5F009E208B5F06BDFF510
:100440008067E3F5F009E608B5F05EDFF5805A87CE
:10045000F009E608B5F052DFF6804E87F009E208B1
:10046000B5F046DFF6804288828C8387F009E0A3EE
:10047000B5F036DFF6803288828C8387F009E4930A
:10048000A3B5F025DFF5802188828C83E3F5F009A0
:10049000E0A3B5F014DFF5801088828C83E3F5F0DB
:1004A00009E493A3B5F002DFF4020564808780E9D4
:1004B000809080D4803E8015806E807E809D80B745
:1004C000808D80A380518074803C02057089828A6F
:1004D00083ECFAE493F5F0A3C8C582C8CCC583CCFD
:1004E000E493A3C8C582C8CCC583CCB5F076DFE35E
:1004F000DEE1807089828A83E493F5F0A3E208B597
:10050000F062DFF4805E89828A83E0F5F0A3E6087A
:10051000B5F051DFF5804D89828A83E0F5F0A3E2E2
:1005200008B5F040DFF5803C89828A83E493F5F0DA
:10053000A3E608B5F02EDFF4802A80028057898276
:100540008A83ECFAE493F5F0A3C8C582C8CCC583CE
:10055000CCE0A3C8C582C8CCC583CCB5F006DFE427
:10056000DEE280007FFFB5F0020F2240027F012211
:1005700089828A83ECFAE0F5F0A3C8C582C8CCC5AD
:1005800083CCE0A3C8C582C8CCC583CCB5F0D5DF89
:10059000E5DEE380CF89828A83ECFAE0F5F0A3C838
:1005A000C582C8CCC583CCE493A3C8C582C8CCC5DA
:1005B00083CCB5F0AFDFE4DEE280A988F0EF600124
:1005C0000E4E60ABED2402B404005013F582EB2410
:1005D00002B40400500923234582239004AC731213
:1005E00003CBF5F0C90470010AC8C9CACCCACBCD87
:1005F000CB1203CBC90470010AC8C9CACCCACBCD7F
:10060000CBB5F004DFD9DED7020564C5F0F8A3E06E
:1006100028F0C5F0F8E582158270021583E038F005
:1006200022900066EEF0A3EFF04E700302075F9099
:1006300000DAE07002A3E0700302075F900066E05A
:10064000FEA3E024FCFFEE34FFFEA37400F0A374CD
:10065000D8F0900068E0FCA3E0F5828C83E0FCA376
:10066000E0FD90006AECF0A3EDF04C602090006695
:10067000E0FCA3E0FD90006AE0FAA3E0FBD39DEA72
:100680009C500A900068EAF0A3EBF080C590006AE5
:10069000E07002A3E0604D8F828E83A3A3E0FCA3F1
:1006A000E0FD900067E02DFD900066E03CFC9000CE
:1006B0006AE0FAA3E0FB6D7002EA6C70278B828A15
:1006C00083A3A3E0FCA3E02404FDE43C8F828E839B
:1006D000A3A38DF012060B90006AE0FCA3E0F58264
:1006E0008C83800390006AE0FDA3E08F828E83CD2F
:1006F000F0A3EDF0900068E0FCA3E0FDF5828C83B0
:10070000A3A3E0FAA3E0FBED2BFDEC3AFCED2404FF
:10071000FDE43CFCED6F7002EC6E70338F828E83D3
:10072000A3A3E0FCA3E02404FDE43CFC900068E00B
:10073000FAA3E0FBF5828A83A3A3EC8DF012060BEB
:100740008F828E83E0FFA3E08B828A83CF800C9020
:100750000068E0FCA3E0F5828C83EEF0A3EFF022CA
:10076000787FE4F6D8FD75813A12010A02079802F3
:10077000089DE493A3F85407240CC8C333C4540F52
:100780004420C8834004F456800146F6DFE4800B21
:100790000102040810204080900855E47E01936017
:1007A000CEA3FF543F30E509541FFEE493A360013C
:1007B0000ECF54E0B4E025E493FBA3E493FAA3E462
:1007C00093F9A3E493C083C08212041ED082D08325
:1007D000A309E970010ADFEBDEE980BF54C025E020
:1007E0006025408EE493A3FAE493A3F8E493A3C8AE
:1007F000C582C8CAC583CAF0A3C8C582C8CAC58392
:10080000CADFE9DEE78094E493A3F8E493A340030E
:10081000F68001F208DFF48082EF4E7008FE7F015F
:10082000ED1D70011C9000D8EEF0A3EFF0A3ECF0EA
:10083000A3EDF09000D8E0FEA3E0FFF5828E83E404
:10084000F0A3F0ED24FCFDEC34FF8F828E83A3A394
:10085000F0A3EDF0224100E400004800D8000000C1
:1008600000000000000123456789ABCDEF4E6F7794
:10087000206973207468652074696D6520666F72E5
:1008800020616C6C203FA40E8A984D48156A27178A
:1008900087AB8883F9893D51EC4B563B5371C53189
:1008A0009971357B017A00790031797B017A007981
:1008B0000011DB900005EEF0A3EFF071B99000019C
:1008C000E07F00B4FF027F01900000E07E00B451A1
:1008D000027E01EE5F60CC71D980C8900007519B09
:1008E000316EF91203CB645160057E6E7F0022E900
:1008F0002401511204606214B40A0050619009048A
:10090000F828287302092202092702092C0209315A
:1009100002093602093B02094102094702094D0258
:100920000953316EF941FE316EF941D3316EF9410F
:1009300019316EF98078316EF9416E316EF902012C
:1009400088316EF902018D316EF9020192316EF932
:10095000020197316EF902019C316EF941AF7E6D53
:100960007F0022F9E43AFAEF12041E1200F7900019
:1009700007E0FBA3E0FAA3E022900007519B316B54
:10098000F931672401316324023163240331632484
:1009900004F9E43AFAEF02041E7598504389207571
:1009A0008DFD758BFD538780438840D2AF225198CF
:1009B0002401511271A131712402511271E12403F9
:1009C000511271C99000E2F0A3EFF090000A31716A
:1009D0005110602C75D1041200F7AD079000E2E0D1
:1009E000FEA3E0FF712EE4F5D19000E3E004F07087
:1009F000069000E2E004F090000A317171EB80CBC8
:100A00007E907F002290000AEBF0A3EAF0A3E9F0C9
:100A10002404F9E43AFA0203CB51982401511271EB
:100A2000A131712402511271E12403511271C99054
:100A300000E0F0A3EFF0E490000DF090000A3171B7
:100A40005110FF90000DE0FEC39F501DEEFF90007F
:100A5000E1E02FFF9000E0E03400FE9100AE07518E
:100A6000A490000DE004F080D27E907F0022519887
:100A700090000A317124015112FF51A490000A31F3
:100A8000715110600E1200F78FB790000A3171712A
:100A9000EB80E97E907F002290000AEBF0A3EAF061
:100AA000A3E9F0228F99758701E5B220E4F622517F
:100AB000056401701990000A317124015112FF512F
:100AC000A47F3F71D1712EE5D130E1FB619A7E6741
:100AD0007F002251056401702090000A31712401C9
:100AE000511271A8C39440500B71D1712EE5D130D1
:100AF000E1FB619A7E6F7F00227E677F00225105B5
:100B00006401702590000A31712401511271A8B45A
:100B1000FF1275D1057D107455FFFE712EE5D130A1
:100B2000E1FB80767E6F7F00227E677F00228F82CE
:100B30008E83EDF02271F6E4FEEE90000393FF51F8
:100B4000A40EEEB403F3E4FE1200F771B0F583EFE8
:100B5000F00EEEB404F2E4FE71B0F583E0FF51A4B0
:100B60000EEEB404F3900002E0FF75B205EF24E846
:100B700060152483600C1460132402701675B43F52
:100B8000800D75B41F800875B41E800375B40FE422
:100B9000F5B52275B47375B50122E4F5D17E90FFE9
:100BA00022FF51A490000A22FF51A41200F7EF2265
:100BB00074002EF582E4340022AD07AC06ECFF5140
:100BC000A4AF0541A47F1180A17C002400FFEC3E6E
:100BD0002275D1057E007D302271FBE4F5D1020043
:100BE00000FE90000AA3E0FAA3E0222404F9E43A0C
:100BF000FA74FF0203E9D2ACD2BC22C2ACC2992281
:100C00008F828E83E0FF22C298C29932C0E0C083F7
:100C1000C082C0B775B700C0D09000E4E004F0E037
:100C2000B4FF09C2A9C28C759400E4F0D0D0D0B74B
:100C3000D082D083D0E03278107C007D017B01220D
:10800000120A05B4011190000A1209712401120A22
:1080100012FF120AA480057E677F00221200F77506
:10802000C2018FC3E4FFFE740D2FF58274003EF58C
:1080300083E5C4F00FBF00010EEF64324E70E8E438
:10804000FEFF75C11275C056E4FDFC740D2DF5825E
:1080500074003CF583E0F5C10DBD00010CED643208
:108060004C70E8EF4E7809700DA6C0E6F5A008A6A2
:10807000C1E6F5B0800DE6F5C108E6F5C108A6C079
:1080800008A6C10FBF00010EEF64024E70B4780C59
:10809000E67F0070027F01780BE67E0070027E01B1
:0B80A000EE5F7E6F60027E907F00228A
:020000040001F9
:10000000120A98782E7C007D017BFF7A0879657E44
:10001000007F0812037978367C007D017BFF7A0827
:10002000796D31D7784E7C007D017BFF7A08798528
:1000300031D790000A120971120A10B4180E120B6F
:10004000E22401120A12FF120AA480057E677F00D3
:10005000227E007F107D187C001208197F187E0018
:10006000120026AA06A90790000D7401120A9CE44A
:1000700090002CF0A3F090002C31F79402EE6480F5
:10008000948040022187EF4E70117B0190000D0497
:10009000F0A37400F0A37436F0800E90000D74018C
:1000A000F0A37400F0A3744EF0E490002AF0A3F0E3
:1000B00090002CE07002A3E0700575C50280037506
:1000C000C50631DE31F49408EE64809480501574D6
:1000D0002E2FF58274003EF583E0F5C631ED7002F7
:1000E00031E680E090002CE07002A3E07004F5C5DA
:1000F000800375C50431DE511A502631FEC333CE5C
:1001000033CED8F92DFFEC3EFE90000D1209712F71
:10011000F9EA3EFA1203CBF5C631ED700231E68002
:10012000D690002CE07002A3E0700575C501800335
:1001300075C505E5C530E0FB31DE511A501D31FEB5
:10014000C333CE33CED8F92DFFEC3EFE5106F583F6
:10015000E5C7F031ED700231E680DF90002BE0045E
:10016000F0700690002AE004F090002AE07004A3EA
:10017000E06403600201B090002DE004F07006908E
:10018000002CE004F0017631DE31F49418EE648046
:10019000948050175106F583E0FF120AA400000076
:1001A00000000031ED700231E680DE120C377A007B
:1001B00079367E007F181205BBEF90000D70075155
:0D01C0000F7E907F0022510F7E6F7F002286
:1001D7007E007F18020379E4900028F0A3F02290B4
:1001E7000028E004F022900029E004F02290002883
:1001F700E0FEA3E0FFC322A3E0FEA3E0780322749E
:10020700102FF58274003E22A3E0FAA3E0AE02FFAE
:10021700020621900028E0FCA3E0FDC39408EC64EB
:04022700809480221D
:10800000120A987E007F1011C87E007F7411C890FC
:10801000000A1209712402120A12C3948050057ECC
:108020006B7F002290000A120971120A10D3940883
:1080300040057E677F002290000A12097124011218
:108040000A12FF120AA490000DE5B7F01200F78F94
:10805000B790000A1209712402120A12120BE124CD
:1080600003120A12120BC990000EF0A3EFF075D1A3
:108070000411CFAD04120B2EE4F5D174742CF582EB
:10808000E43400F583ECF00CECB464E2E4FC11CFD2
:10809000120C0074102CF582E43400F583EFF00C20
:1080A000ECB464EA90000DE0F5B7120C377A007971
:1080B000747E007F641205BBEF70047E90FF227E09
:0480C0006F7F0022AC
:1080C8007D647C00020819ECFF90000FE02FFF9000
:0780D800000EE03400FE225F
:020000040002F8
:10000000120A9890000A120971120A10B4010E1215
:100010000BE22401120A12FF120AA480057E677FF8
:1000200000221200F78F94D2A9759301D28CD2AF1F
:09003000E59470FC7E907F002233
:10800000120A982401120A12FF120AA4E4FDFC7558
:10801000D10411587B07ED12041EE4F5D10DBD000B
:10802000010CE4B505E9ECB480E5E4FCFD90000A40
:10803000120971120A10FFC3ED9FEC940050121147
:10804000587B071203CBFF120AA40DBD00010C8060
:06805000DC7E907F00229F
:0980580074002DF974803CFA2239
:00000001FF
