:020000040000FA
:10000000020014EF90000C93900100730A1B2C3D2A
:100010004E5F7081787FE4F6D8FD75810812010A81
:1000200002002B8F828E83E493FF22E4900004F081
:10003000A3F0A3F0A37410F0A3741CF0A374F5F064
:10004000A37412F0A37434F0900004E0FEA3E07CEB
:10005000002400FFEC3E900000F0A3EFF0900006BB
:10006000E0FEA3E02400FFEC3E900002F0A3EFF0DE
:1000700075C13475C012E4FDD3900003E09D90007B
:1000800002E09C4017900001E02DFF900000E03C52
:10009000FE11238FC10DBD00010C80DCAFC0AEC1CD
:1000A000900009E0B506047E0180027E0090000801
:1000B000E0B507047F0180027F00EF5E6005758078
:0800C0006080037580BA80FE28
:10010000C0087401C0E0C082C08375080A75B600DB
:1001100022C0087401C0E0C082C08375081B75B698
:100120000122C0087401C0E0C082C08375082C752C
:10013000B60222C0087401C0E0C082C08375083DC9
:1001400075B60322C0087401C0E0C082C083750880
:100150004E75B60422C0087401C0E0C082C0837529
:10016000085F75B60522C0087401C0E0C082C08374
:1001700075087075B60622C0087401C0E0C082C060
:080180008375088175B60722A2
:1001890089828A838BB715B753B77FBB8000500527
:10019900E075B70022E49375B7002289828A838BC0
:1001A900B715B753B77FBB80005001F075B7002270
:1001B90089828A838BB715B753B77FBB80005009F3
:1001C900E0F5F0A3E075B70022E493F5F07401932C
:1001D90075B7002289828A838BB715B753B77FBB5E
:1001E90080005005F0A3E5F0F075B7002289828AF6
:1001F900838BB715B753B77FBB8000500CE0FBA3C7
:10020900E0FAA3E0F975B70022E493FB740193FACD
:10021900740293F975B7002289828A838BB715B75F
:1002290053B77FBB8000500AC5F0F0A3C5F0F0A317
:10023900E8F075B7002289828A838BB715B753B75F
:100249007FBB8000500FE0FCA3E0FDA3E0FEA3E02C
:10025900FF75B70022E493FC740193FD740293FEC9
:10026900740393FF75B7002289828A838BB715B708
:1002790053B77FBB8000500BECF0A3EDF0A3EEF079
:07028900A3EFF075B700229E
:00000001FF
